:020000040000fa
:080000000002040000000000f2
:020000040000fa
:04000800ce03000023
:020000040000fa
:04000c0010040000dc
:020000040000fa
:040010005004000098
:020000040000fa
:04001400ee030000f7
:020000040000fa
:0400180030040000b0
:020000040000fa
:04001c00a405000037
:020000040000fa
:040020007004000068
:020000040000fa
:04002400a40500002f
:020000040000fa
:04002800a40500002b
:020000040000fa
:04002c00a405000027
:020000040000fa
:04003000a405000023
:020000040000fa
:04003400a40500001f
:020000040000fa
:04003800a40500001b
:020000040000fa
:04003c00a405000017
:020000040000fa
:04004000a405000013
:020000040000fa
:04004400a40500000f
:020000040000fa
:04004800a40500000b
:020000040000fa
:04004c00a405000007
:020000040000fa
:04005000a405000003
:020000040000fa
:04005400a4050000ff
:020000040000fa
:04005800a4050000fb
:020000040000fa
:04005c00a4050000f7
:020000040000fa
:04006000a4050000f3
:020000040000fa
:04006400a4050000ef
:020000040000fa
:04006800a4050000eb
:020000040000fa
:04006c00a4050000e7
:020000040000fa
:04007000a4050000e3
:020000040000fa
:04007400a4050000df
:020000040000fa
:04007800a4050000db
:020000040000fa
:04007c00a4050000d7
:020000040000fa
:04008000a4050000d3
:020000040000fa
:04008400a4050000cf
:020000040000fa
:04008800a4050000cb
:020000040000fa
:04008c00a4050000c7
:020000040000fa
:04009000a4050000c3
:020000040000fa
:040094001a05000049
:020000040000fa
:04009800ba040000a6
:020000040000fa
:04009c00a4050000b7
:020000040000fa
:0400a000a4050000b3
:020000040000fa
:0400a400a4050000af
:020000040000fa
:0400a800a4050000ab
:020000040000fa
:0400ac00a4050000a7
:020000040000fa
:0400b000a4050000a3
:020000040000fa
:0400b400a40500009f
:020000040000fa
:0400b800a40500009b
:020000040000fa
:0400bc00a405000097
:020000040000fa
:0400c000a405000093
:020000040000fa
:0400c400a40500008f
:020000040000fa
:0400c800a40500008b
:020000040000fa
:0400cc00a405000087
:020000040000fa
:0400d000a405000083
:020000040000fa
:0400d400a40500007f
:020000040000fa
:0400d800a40500007b
:020000040000fa
:0400dc00a405000077
:020000040000fa
:0400e000a405000073
:020000040000fa
:0400e400a40500006f
:020000040000fa
:0400e800a40500006b
:020000040000fa
:0400ec00a405000067
:020000040000fa
:0400f0008605000081
:020000040000fa
:0400f400a40500005f
:020000040000fa
:0400f800a40500005b
:020000040000fa
:0400fc00a405000057
:020000040000fa
:04010000a405000052
:020000040000fa
:04010400a40500004e
:020000040000fa
:04010800a40500004a
:020000040000fa
:04010c00a405000046
:020000040000fa
:04011000a405000042
:020000040000fa
:04011400a40500003e
:020000040000fa
:04011800a40500003a
:020000040000fa
:04011c00a405000036
:020000040000fa
:04012000a405000032
:020000040000fa
:04012400a40500002e
:020000040000fa
:04012800a40500002a
:020000040000fa
:04012c00a405000026
:020000040000fa
:04013000a405000022
:020000040000fa
:04013400a40500001e
:020000040000fa
:04013800a40500001a
:020000040000fa
:04013c00a405000016
:020000040000fa
:04014000a405000012
:020000040000fa
:04014400a40500000e
:020000040000fa
:04014800a40500000a
:020000040000fa
:04014c00a405000006
:020000040000fa
:04015000a405000002
:020000040000fa
:04015400a4050000fe
:020000040000fa
:04015800a4050000fa
:020000040000fa
:04015c00a4050000f6
:020000040000fa
:04016000a4050000f2
:020000040000fa
:04016400a4050000ee
:020000040000fa
:04016800a4050000ea
:020000040000fa
:04016c00a4050000e6
:020000040000fa
:04017000a4050000e2
:020000040000fa
:04017400a4050000de
:020000040000fa
:04017800a4050000da
:020000040000fa
:04017c00a4050000d6
:020000040000fa
:04018000a4050000d2
:020000040000fa
:04018400a4050000ce
:020000040000fa
:04018800a4050000ca
:020000040000fa
:04018c00a4050000c6
:020000040000fa
:04019000a4050000c2
:020000040000fa
:04019400a4050000be
:020000040000fa
:04019800a4050000ba
:020000040000fa
:04019c00a4050000b6
:020000040000fa
:0401a000a4050000b2
:020000040000fa
:0401a400a4050000ae
:020000040000fa
:0401a800a4050000aa
:020000040000fa
:0401ac00a4050000a6
:020000040000fa
:0401b000a4050000a2
:020000040000fa
:0401b400a40500009e
:020000040000fa
:0401b800a40500009a
:020000040000fa
:0401bc00a405000096
:020000040000fa
:0401c000a405000092
:020000040000fa
:0401c400a40500008e
:020000040000fa
:0401c800a40500008a
:020000040000fa
:0401cc00a405000086
:020000040000fa
:0401d000a405000082
:020000040000fa
:0401d400a40500007e
:020000040000fa
:0401d800a40500007a
:020000040000fa
:0401dc00a405000076
:020000040000fa
:0401e000a405000072
:020000040000fa
:0401e400a40500006e
:020000040000fa
:0401e800a40500006a
:020000040000fa
:0401ec00a405000066
:020000040000fa
:0401f000a405000062
:020000040000fa
:0401f400a40500005e
:020000040000fa
:0401f800a40500005a
:020000040000fa
:0401fc00a405000056
:020000040000fa
:04020000a405000051
:020000040000fa
:04020400a40500004d
:020000040000fa
:04020800a405000049
:020000040000fa
:04020c00a405000045
:020000040000fa
:04021000a405000041
:020000040000fa
:04021400a40500003d
:020000040000fa
:04021800a405000039
:020000040000fa
:04021c00a405000035
:020000040000fa
:04022000a405000031
:020000040000fa
:04022400a40500002d
:020000040000fa
:04022800a405000029
:020000040000fa
:04022c00a405000025
:020000040000fa
:04023000a405000021
:020000040000fa
:04023400a40500001d
:020000040000fa
:04023800a405000019
:020000040000fa
:04023c00a405000015
:020000040000fa
:04024000a405000011
:020000040000fa
:04024400a40500000d
:020000040000fa
:04024800a405000009
:020000040000fa
:04024c00a405000005
:020000040000fa
:04025000a405000001
:020000040000fa
:04025400a4050000fd
:020000040000fa
:04025800a4050000f9
:020000040000fa
:04025c00a4050000f5
:020000040000fa
:04026000a4050000f1
:020000040000fa
:04026400a4050000ed
:020000040000fa
:04026800a4050000e9
:020000040000fa
:04026c00a4050000e5
:020000040000fa
:04027000a4050000e1
:020000040000fa
:04027400a4050000dd
:020000040000fa
:04027800a4050000d9
:020000040000fa
:04027c00a4050000d5
:020000040000fa
:04028000a4050000d1
:020000040000fa
:04028400a4050000cd
:020000040000fa
:04028800a4050000c9
:020000040000fa
:04028c00a4050000c5
:020000040000fa
:04029000a4050000c1
:020000040000fa
:04029400a4050000bd
:020000040000fa
:04029800a4050000b9
:020000040000fa
:04029c00a4050000b5
:020000040000fa
:0402a000a4050000b1
:020000040000fa
:0402a400a4050000ad
:020000040000fa
:0402a800a4050000a9
:020000040000fa
:0402ac00a4050000a5
:020000040000fa
:0402b000a4050000a1
:020000040000fa
:0402b400a40500009d
:020000040000fa
:0402b800a405000099
:020000040000fa
:0402bc00a405000095
:020000040000fa
:0402c000a405000091
:020000040000fa
:0402c400a40500008d
:020000040000fa
:0402c800a405000089
:020000040000fa
:0402cc00a405000085
:020000040000fa
:0402d000a405000081
:020000040000fa
:0402d400a40500007d
:020000040000fa
:0402d800a405000079
:020000040000fa
:0402dc00a405000075
:020000040000fa
:0402e000a405000071
:020000040000fa
:0402e400a40500006d
:020000040000fa
:0402e800a405000069
:020000040000fa
:0402ec00a405000065
:020000040000fa
:0402f000a405000061
:020000040000fa
:0402f400a40500005d
:020000040000fa
:0402f800a405000059
:020000040000fa
:0402fc00a405000055
:020000040000fa
:04030000a405000050
:020000040000fa
:04030400a40500004c
:020000040000fa
:04030800a405000048
:020000040000fa
:04030c00a405000044
:020000040000fa
:04031000a405000040
:020000040000fa
:04031400a40500003c
:020000040000fa
:04031800a405000038
:020000040000fa
:04031c00a405000034
:020000040000fa
:040320009c05000038
:020000040000fa
:100400002f1221000eff27000e018800000020009f
:100410000000e000020032000001200020028800fd
:1004200014000700190207000000e00003003a0072
:10043000c0c321000100200002003700000020009e
:1004400001002000810f70004220ae000f00070065
:10045000000020000000e0004220ae00000002008a
:10046000000000009a1e0200000000000040da00b8
:100470000000fe00000820000000e0000200320042
:10048000002020009001880000000600a1028800e2
:10049000800478000000eb001f003700e284440075
:1004a00054a0b4009905ba00e284440054a0b400fa
:1004b0009906ba00e284440054a0b4000006eb00a0
:1004c000476fde00fd07b200ae018800636ce100fb
:1004d00003003a000ad801000000eb000e003700cc
:1004e000606ce10008003a00004deb000a05e800ee
:1004f000020039003420ec000af0a0008b05e9006e
:10050000f9ff3e00040037006168e100010032009d
:100510000086eb000b00070019c7ba001905ba00e6
:100520000e04e00003003a000a00e000dbff3a009e
:1005300000000600fe07b200ae0288008a047800c0
:10054000f5ff37000cd0a300e20f4d001c0039006e
:1005500089027800354dba000a05e800020039002a
:100560003420ec000af0a0008b05e9000f003200f7
:10057000254dba000a05e800020039003420ec00dd
:100580000af0a0008b05e900080032000c00e00032
:100590000600320015cdba000a05e8000200390055
:1005a0003420ec000af0a0008b05e9008984e80003
:1005b00054a0b4000b00e000e2ff3a000000060087
:1005c0009902ba00055d78008b05e900f7ff32005b
:1005d000c82ade00055d78008b05e900f3ff3200d4
:1005e0000c00e000f1ff320019ddba00eeff370029
:1005f0006100e10001003200100005005400f80025
:1006000050102000a002880000f927001000ba0056
:100610005400f90007e02b0007f0a7008703d10082
:100620000703780001c4fe000003eb000120200056
:100630009001880081ea2900111303008703e90073
:10064000fdff3a0000f0a6000000050000f0a00049
:1006500080c4fe0086037800f3ff37000408200002
:10066000010037000002eb006100e10001003200f0
:10067000100005003200f8003400f8008102780014
:10068000930188003200be000100e0000c0032003f
:100690000470a70000f0a00032037800c733de002a
:1006a000848343004220af008703e800a70188004d
:1006b000f607b2007f30e100040032002000200085
:1006c0003400f9003200f900000006008100e90062
:1006d0000500e00003003a00018009003210030029
:1006e000e8ff37000180090032900300d561ae00b9
:1006f000e4ff370030002000f1ff370050052000f4
:10070000b00e8800a00a2000b00e8800d3e1a80037
:100710000000060050052000b00e8800a00a20004e
:10072000b00e8800d3e1a90000000600961704006f
:1007300000000000c21704000000000002180400be
:1007400000000000ec170400000000005a1704002d
:1007500000000000781704000000000036180400b4
:10076000000000000a1704000000000072170400d7
:10077000000000009017040000000000b406040010
:1007800000000000e0060400000000003812040031
:100790000000000000000400000000003600f80027
:1007a000809fbe00829fbe00849fbe00869fbe00c9
:1007b0000000fa00c028a9000000eb00510d07005e
:1007c0000080fa004f03be004f02be004f01be0082
:1007d0004f00be003600f900004006003600f80069
:1007e000809fbe00829fbe00849fbe00869fbe0089
:1007f0000000fa00480d0700c048a90010002000c2
:10080000400d07000080fa004f03be004f02be00fb
:100810004f01be004f00be003600f9000040060048
:100820003600f800809fbe00829fbe00849fbe00fd
:10083000869fbe000000fa00c068a90020002000ca
:10084000300d07000080fa004f03be004f02be00cb
:100850004f01be004f00be003600f9000040060008
:100860003600f800809fbe00829fbe00849fbe00bd
:10087000869fbe000000fa00c088a900300020005a
:10088000200d07000080fa004f03be004f02be009b
:100890004f01be004f00be003600f90000400600c8
:1008a0003600f800809fbe00829fbe00849fbe007d
:1008b000869fbe000000fa00c608a9007000200054
:1008c000100d07000080fa004f03be004f02be006b
:1008d0004f01be004f00be003600f9000040060088
:1008e0003600f800809fbe00829fbe00849fbe003d
:1008f000869fbe000000fa00214680000010200004
:10090000008060000000e00003003200c508a9007c
:10091000c0002000fb0c07002146800000022000e0
:10092000008060000000e00003003200c4a8a900bd
:1009300090002000f30c070020468000700060004b
:100940000000e00003003200c488a900a0002000dd
:10095000ec0c070020468000610060000000e00011
:1009600003003200c408a900b0002000e50c070015
:10097000ffff37003600f800809fbe00829fbe0058
:10098000849fbe00869fbe000000fa005080800059
:100990000000e000020032005080800000000100f2
:1009a0003180800020808000808f500002003a005b
:1009b0002388a900180037000388a9001000370019
:1009c00030808000904078008180fb008113880097
:1009d0000000e8003080880031808000f00f2100a6
:1009e000808f500002003a00600f210030808800a4
:1009f0003180800020808000808f50000500320010
:100a000030138000700060000000e000ecff320056
:100a100001003700000000000080fa004f03be0014
:100a20004f02be004f01be004f00be003600f9006d
:100a3000004006003600f800809fbe00829fbe0086
:100a4000849fbe00869fbe000000fa006080800088
:100a50000000e00002003200608080000000010021
:100a60000368a9001e003700008080006113800029
:100a700081407800014878000180800070102100da
:100a8000808f500009003200008080008000e80064
:100a900010808000808f50000400320000808000b1
:100aa0000000e800008088000d0037000180800011
:100ab00070102100808f500007003a0011808000e4
:100ac000f00f2100808f500003003200f00f210052
:100ad000008088000200370010c0b30008f0b700a3
:100ae00030138000620060000000e000deff320092
:100af0000080fa004f03be004f02be004f01be004f
:100b00004f00be003600f90000400600801f78004c
:100b10000000fa0020138000620060000000e00086
:100b2000010032006422a9000648a9000080fa00f2
:100b30004f007800004006000000fa0017c8a90026
:100b40000080fa00004006000040da000000fe00cd
:100b50000a00fa0011002000b1bf9f00c0bf9f0033
:100b60006a805700f90607004fb897000080fa0026
:100b7000000006000a00fa0051002000b1bf9f00eb
:100b8000c0bf9f006a805700f20607005fb8970059
:100b90000080fa0000000600889fbe0080047800f4
:100ba000008980000000e00004003a000e00070009
:100bb0000084eb000000e000080035000889800098
:100bc0000900e000050032000900440006000700ab
:100bd0000000e00001003d000084eb000800780008
:100be0004f04be0000000600800078000100e00015
:100bf00003003a0000002000008988000000050082
:100c00000080eb0002002000828f500002003e00b6
:100c1000018988000000eb00000006000a00fa00cd
:100c2000200798003107980042079800be00900006
:100c3000110798000000eb00000f78000c0037004f
:100c400000000000ef0807000004a2000004e0001c
:100c5000fcff3a001e009000104078009e009000bb
:100c60008100e80011079800c60807001e0fe80081
:100c70004e0090009e007800808f5000f0ff3900f9
:100c80004e0090000080fa00000006000000050001
:100c90008001780002003700815978000201e900e4
:100ca0000200e000fcff3a0000000600a103210062
:100cb0000600370080007800010178003104e00070
:100cc000fdff3a000000510000000600889fbe00b2
:100cd0008a1f78000004be00c900900069009000df
:100ce000808f50000600390009007800c702070015
:100cf000800078000080eb000100e0001700350064
:100d0000084578004900900008587800c004980011
:100d10001900780000b8a30004003a0000a8a3005e
:100d200008003200ea4f540006003a00090078003b
:100d30000a020700800078000080eb000100e0005c
:100d400006003a0000c020001900600002003200d6
:100d500049009000e00498000a80fb004f057800ed
:100d60004f04be0000000600889fbe00000478000b
:100d70000100780082047800880178000901780079
:100d80001100200030020700890f500001003200de
:100d90000004eb00080078004f04be0000000600cd
:100da0000000fa00e88157004fb99700a103210025
:100db000406b2000cc0007000080fa000000060015
:100dc000889fbe00000478000203be008104780002
:100dd0000802780089017800120020000600be0099
:100de000e4040700890f5000010032000004eb000a
:100df000080078004f04be00000006006800fa00fa
:100e0000889fbe008a9fbe0080047800010478009d
:100e100082057800030578008400780000f92f002f
:100e20000f004000d1040700d98f9f00fb8f9f0067
:100e30000000eb00a09f9f00e88f9f009a84fb00ba
:100e40000904fb008904ea00cf4cde0050022000b8
:100e5000800f54000d003200e18f54000b003a0067
:100e6000090178008a0078007f889700df89970061
:100e700003000100f08f9f000000e00095003200a9
:100e80002f9897000000e800a09f9f0009054500eb
:100e900050022000800f5400040032000800e000df
:100ea000e6ff3a002f9897008b0037000000eb0018
:100eb000809f9f00f0979f00e0979f00d0979f0032
:100ec000c0979f00b0979f0007003700010f2100d7
:100ed0000100500000004000410e210080804000d1
:100ee0004f98970011007000c09f9f000a0478007f
:100ef00008057800ba4478008900fb00000f210043
:100f0000360207000000e000f0ff3a00a1c2b30083
:100f100081cf54000e003a008f8897000180e900cd
:100f2000808f9f0010007800b09f9f000000e000bd
:100f300005003d000000ea00b09f9f004f98970019
:100f40000020a000c09f9f000804e80010003700a8
:100f5000b09f9f00880078000000eb00050037007c
:100f6000f3ff2700830f500002003200ea00b900af
:100f70000000410001047800880078003101fb0086
:100f80000203b100e90f5100f5ff3600b09f9f004a
:100f9000e0c2b300984f1000020032000080eb0066
:100fa00019003700a0c2b300d84f100007003a0064
:100fb0008f8897000180e900808f9f0010007800e3
:100fc000909f9f000804e800100037000000eb002d
:100fd000909f9f008800780005003700f3ff2700ee
:100fe000830f500002003200ea00b9000000410007
:100ff00001047800880078003101fb000203b10091
:10100000e90f5100f5ff3600909f9f00984478004b
:101010008900fb00c00d2100f00107000000e00086
:10102000020032000804e800010037008044eb00b1
:10103000a97f9f0080c6b30080cf540006003a000d
:1010400098cf140010003a0066405000a07f9f0027
:101050000804e8000c003700c0c6b30080cf54007d
:1010600009003a0098cf140007003a00674040009a
:10107000d84f100002003a006e40500001003700c7
:1010800010c7b300a07f9f001801fb00c3fb2f0017
:101090008f81410001f92f008f80400020f92f003f
:1010a0000f004000150007000000e00009003a00b2
:1010b000c1fb2f008f80400020f92f000f0040005f
:1010c000500307000000e000020035000805e800ba
:1010d0005aff37000080eb004f05be004f04be00f2
:1010e0000080fa0000000600030278008201780008
:1010f00001017800016e200040ff3700889fbe008c
:101100008a9fbe00e4c6b300844f5100c400320081
:1011100010003c006b425200844f51001800320016
:1011200005003c0054c2b300844f5100fc00320063
:1011300084c5b3000f00370044c6b300844f51008c
:101140001500320065424200844f5100f7003a001a
:101150001100370004c7b300844f5100e300320090
:101160005a00350065424200844f5100570032005a
:1011700063424200844f5100ec003a0053003700b4
:101180001181e90082087800a00890008181410067
:1011900092497800eb003700006a9000c5c6b300a2
:1011a000854f520007003a00910278006482520095
:1011b000840878001402be004fabde00860378007e
:1011c0001400370015c7b300854f520003003a00e2
:1011d000110478006802540005003700a5c6b3006a
:1011e000854f520006003a0091047800688254004e
:1011f000840878005403be004402be000500370096
:101200001182e9008408780014027800cfa2de0081
:10121000612bb9000498be000690be008068900063
:1012200088c6b30088cf50000d00320028c6b30036
:1012300088cf500004003a000402fb00cfa2de0079
:10124000612bb9000800370048c7b30088cf5000b1
:10125000030032006644440088cf500004003a0086
:10126000cfa2de00612bb9000498be000690be003c
:101270003002be002003be00a0089000e00f520024
:10128000e08f5a00e00f5b00e08f5b0003003d0041
:1012900001824100d5c2b3000a003700301290002d
:1012a0000418a3000300320001824100b5c2b3005c
:1012b000040037000408a3005400320001824100fa
:1012c00005c2b300054a78004e003700006a90005e
:1012d000c5c6b300854f520008003a0011057800da
:1012e00064025500840878001404be006055b800fc
:1012f0000802be000a03be001400370015c7b30081
:10130000854f520003003a0091047800688254002f
:1013100005003700a5c6b300854f520006003a000d
:101320001105780068025500840878005403be0057
:101330004402be00050037001182e90084087800ed
:10134000140278008002eb006033b8000498be00fd
:101350000690be008068900088c6b30088cf500019
:101360000d00320028c6b30088cf500004003a00b8
:101370000482fb008002eb006033b80008003700f5
:1013800048c7b30088cf50000300320066444400d1
:1013900088cf500004003a008002eb006033b800b0
:1013a0000498be000690be00b01090000138a30063
:1013b000160032003002be002003be00e00f5200d3
:1013c000e08f5a00e00f5b00e08f5b000f003200ff
:1013d00081c7b300814f51000300320081c5b300c3
:1013e000814f510009003a00a0089000018241009d
:1013f00005c3b300054a78008100e800018241007e
:10140000024a78008100e80021089800a0089000b6
:101410008181410073009800824078003e003700cf
:1014200080699000c4c6b3001181e90084cf5100e7
:10143000220032000a003c006442520084cf510076
:101440002500320004c2e80084cf510013003200ae
:101450006842520084cf51001e003a000a00370053
:1014600044c7b30084cf51001b00320066424200e3
:1014700084cf5100180032006942520084cf5100dd
:1014800014003a00050037008208780092007800c6
:1014900020609000804878002c0037008208780097
:1014a0009200780010129000cfa2de00612bb900ec
:1014b0008498be008690be00240037008208780021
:1014c0009200780010119000cf91de008288be005b
:1014d0001e0037001181e900820878009200780030
:1014e0001010900080087800180037001181e90082
:1014f0008208780012027800cfa2de00612bb900ca
:101500000498be000690be00a008900081814100b2
:101510007300980081c7b300030107000b00370078
:10152000a00890008181410005003700a0089000cc
:10153000818141000204e00001003a0052c2b30080
:10154000824978008100e800210898000000eb0043
:101550004f05be004f04be0000000600889fbe007d
:101560008a1f7800000478000800e0000d003a00af
:1015700088082100700544008004eb0058007800c2
:101580000000e00004003200f4ff07000000e0006b
:1015900001003d008084eb008a0f5400f7ff3a0001
:1015a0002500370000002200180060008004eb00d6
:1015b00021003200a80490000f00370009015100fb
:1015c000384090000000fb008900780093fd070080
:1015d0000000e00007003c00280090004004980054
:1015e00060049800500c98001890a0008084eb00d4
:1015f000110037008084440048019000828f54001d
:10160000eeff390028009000400498009800780010
:1016100002c020000281600001003a003800900002
:1016200001e8a300020032006004980001003700c6
:10163000500c98008004eb00090078004f057800fa
:101640004f04be0000000600889fbe008a9fbe00b7
:101650008c9fbe008e1f7800000678000104780081
:1016600002007800830478008881b90002077800be
:101670000e00e000420032000800e00041003200ad
:101680008e057800c900900069009000808f50009e
:1016900004003900090078005c0007000000e00049
:1016a0002900350000402000190060000a003200c7
:1016b0000b017800a10020000c0078003600070024
:1016c000800678000d00e00006003200610516007b
:1016d0000a854600040037000b0578008006eb0001
:1016e000010037000b05780049009000e9009000e8
:1016f000808050008a8f5000020031000105780080
:101700008006eb000a0178008c0078002c000700ae
:101710008a855500490090000a004000c0049800e6
:101720000d00e00004003200090078008bff070084
:101730000000e00004003a000b00e000020032006c
:101740000a064600cfff3700008020001900600025
:10175000020032000900780080ff070000c020006e
:10176000190060000200320049009000e004980077
:101770008b055700050009008885d8000100370057
:101780000000eb004f0778004f06be004f05be007b
:101790004f04be000000060003003700b0cf100069
:1017a000050032000201e900800178000200e0003b
:1017b000faff3a0000000500030078000000060070
:1017c0008001780002003700b15978000201e90079
:1017d0000200e000fcff3a000000060002003700b3
:1017e0000304e000060032000001780002007800e7
:1017f000b041780081cf5100f9ff3a000100370075
:101800000001eb000200780000000600889fbe0087
:101810008a1f780000047800c800900068019000da
:101820000000eb00828f50003c0039001800780067
:101830002200290002016000e20f5100070032007f
:10184000012020000000e0000100350001202400fc
:10185000008c70000080eb00300037000200260092
:1018600002006000820f500009003a00380090002a
:10187000808f5000060039000800780037ff07000d
:10188000800078000080eb000100e00023003a00b7
:101890001805780000c020000000650018003a001c
:1018a000a80490006002200008004000808f5400cf
:1018b00013003a0000202000700307002004980065
:1018c0000000e00005003a0029049800490498004f
:1018d0008904e80039049800080037000a60a00075
:1018e0000a0c78004004980001202000808040000d
:1018f00031049800400c9800500c98008b020700af
:10190000280090005004980038009000600498006f
:1019100000002600180c70000000eb004f05780056
:101920004f04be0000000600fc874700889fbe00f1
:101930008a9fbe008c9fbe008e1f78000006780034
:1019400080c5b30080cf50000a00320077404000cd
:1019500080cf50000a0032006940400080cf500024
:101960000b003200b00a210080bf9f00ae002000b3
:101970000a003700a209210082bf9f00060037003d
:10198000b30a210083bf9f008e00200003003700b0
:10199000b40a210084bf9f000e0120003c02be005b
:1019a0002c03be000605be000404be0040c6b30002
:1019b00080cf5000030032006540400080cf5000cf
:1019c0000b003a00e00f5200e08f5a00e00f5b007e
:1019d000e08f5b0006003d006000b8006011b800b9
:1019e0000404500085845800060559008785590075
:1019f000e80f57000400320040002000f00f5700ad
:101a00003a003a000100370030002000e00f540097
:101a1000e08f5c00e00f5d00e08f5d0004003a00a5
:101a20008c1090008d0120000100e00007003200c2
:101a30008e00e900888060008fba970081804200a4
:101a400091407800f1ef9f007d0120008000780038
:101a50008100e900050033008b05d1000a85d30021
:101a60008984d3000884d300f9ff3700089ebe00a4
:101a70000a96be00130037008d06e9008e00e900cb
:101a8000848060000fb99700810041001141780007
:101a900083fd2f008d81410082f77900800178005d
:101aa0008301e900050033008783d1000683d3005a
:101ab0008582d3000482d300f9ff3700049ebe0064
:101ac0000696be003c02be002c03be00e00f520092
:101ad000e08f5a00e00f5b00e08f5b009100340064
:101ae0000d00e000e4ff3c008e0037000c68900021
:101af00081c6b300814f50000b00320006003c004d
:101b00000004e00008003200e6c05000814f5000a1
:101b100052003a0004003700c1c6b300814f5000a4
:101b20004e003a00230037000800e00004003a00ad
:101b30000c1090008d0120000000e0000700320032
:101b4000050009000e84d8000fba9700010042007a
:101b500010407800f0ef9f007d0120000500090093
:101b60000e84d8000b003700050009000e04d800d1
:101b70008d06e9008e81b900020454008fb89700e9
:101b8000088440009841780082fd2f000d0141003b
:101b900083777900000478000800e000020032003a
:101ba0000d00e000f0ff3c00cfc4de00614db90045
:101bb00027003700e00f5400e08f5c0004003a007b
:101bc0000c1090008d0120000000e00008003200a1
:101bd0006171b9000800be00430307000fba970007
:101be0008000420091407800f1ef9f007d012000cd
:101bf0006171b9000800be002b0307000c0037001c
:101c00006171b9000800be00180307008d06e900e5
:101c100080f1b900020454008fba97000884420092
:101c20009841780082fd2f000d01410083777900f3
:101c30000004be00e00f5000e08f580002003200a8
:101c40000d00e000eeff3c004fcdde008a0578007d
:101c5000089ebe000a96be0032003700e00f540016
:101c6000e08f5c00e00f5d00e08f5d0004003a0053
:101c70000c1090008d0120000000e0000a003200ee
:101c80006172b900612bb9000800be000a01be00f4
:101c9000be0307000fba9700800042009140780011
:101ca000f1ef9f007d0120006172b900612bb90046
:101cb0000800be000a01be00ad0307000e00370099
:101cc0006172b900612bb9000800be000a01be00b4
:101cd000b20307008d06e90080f2b9000404540045
:101ce0008fba9700088442009842780084fd2f0044
:101cf0000d02420085777a00009ebe000296be006b
:101d00003c04be002c05be00e00f5400e08f5c00d8
:101d1000e00f5d00e08f5d00020034000d00e00088
:101d2000e7ff3c00e80f570010003a003c1090001d
:101d30000038a3000d003200f78f560006003e0069
:101d400080fd2f000d004000ef40780000c3b3007d
:101d500080cf50000500320002c3b30071fd2f0098
:101d60008d8040008d06e90082f7780078811600aa
:101d7000420e98007c00900083fd2f008f8141006f
:101d80008d8041008efe07004c0890008c10900062
:101d9000810f500006003d0000805000300e98007a
:101da0003c1090000040a100301698000f00370052
:101db0000100e0000d003d00bc109000f4806000c8
:101dc000f08f500009003a002c119000ac089000f0
:101dd000810051003c09900082805000008050003a
:101de0004240a90001003400300e98004f077800ef
:101df0004f06be004f05be004f04be00cf01b1002c
:101e0000000006000400fa00889fbe008a9fbe0002
:101e10008c1f78000004780001067800a814900058
:101e20002808900080845400380890008084540072
:101e30004808900080845400580890008084540022
:101e400068089000808454007808900080845400d2
:101e50000002220090bf9f0000032300a0bf9f004c
:101e6000381090000028a30015003a000900e00097
:101e700013003400090578008a057800e20f550048
:101e8000010036002b002000c80190000b017800f3
:101e9000ee80570068009000030001006004980085
:101ea0000000e000aa003200181090000b00400073
:101eb000101498000b0555004240a900eeff3c00ad
:101ec000280990000200e0000c003400c8019000d6
:101ed0008c00780068009000030001006004980006
:101ee0008080eb000000e0009a0032009810900023
:101ef000280890000080400010149800380d9000d1
:101f00000a00e000110034008a057800e20f550055
:101f1000010036002b002000c80190000b01780062
:101f2000ec805700680090000300010060049800f6
:101f30000000e00086003200181090000b00400006
:101f4000101498000b055500edff3700086990004c
:101f5000c808900050c6b300804f510008003a00f6
:101f60000100e000150034005802900008099000bc
:101f700098099000680090000400010007003700f5
:101f80000100e0000d003400c8019000010178005c
:101f9000f8009000680090000300010060049800c1
:101fa0008080eb000000e0006a0032009810900092
:101fb000480890000080400010149800580d9000d0
:101fc0000a00e000110034008a057800e20f550095
:101fd000010036002b002000c80190000b017800a2
:101fe000ec80570068009000030001006004980036
:101ff0000000e00056003200181090000b00400076
:10200000101498000b055500edff3700086990008b
:102010006808900051c6b300814f51000d003a008e
:102020000000e0001c00340078019000c808900017
:10203000010141006111b800828fd2008381d2007a
:1020400058029000800078006800900004000100b1
:10205000090037000000e0000f0034007801900014
:10206000c808900081004100c8019000000178007c
:102070006800900003000100600498008080eb007d
:102080000000e000330032009810900068089000d3
:102090000080400010149800780d90000a00e000c5
:1020a000110034008a057800e20f55000100360067
:1020b0002b002000c80190000b017800ec80570035
:1020c0006800900003000100600498000000e00038
:1020d0001f003200181090000b00400010149800f0
:1020e0000b055500edff3700381090008000eb0025
:1020f0000028a300170032000900e000150034009a
:1021000009057800e28f5400010036002a00200003
:10211000c80190000a017800ee8057006800900026
:1021200003000100600498000000e0000800320095
:10213000181090000a004000101498008a8454007f
:102140004240a900eeff3c008000eb000100370098
:102150008080eb00010078004f0678004f05be003c
:102160004f04be000080fa0000000600010878005d
:1021700000000600e6874700889fbe008a9fbe00d9
:102180008c9fbe008e1f780082bf9f0004047800e1
:102190008299b900f2b79f000200e00059003200b6
:1021a0000fb997000200e000570032000006be00a1
:1021b0007fb79700c800900068009000808f5000a3
:1021c000040039000800780090fd07000000e000de
:1021d0003b00350000402000180060000a0032007b
:1021e0008e017800a20020000c00be0084010700d0
:1021f0000005be0000807500070032008c04550009
:102200008904e800050037008e0478000a002000e9
:102210000b002000010037008e0478004801900078
:102220006800900002005000890f50000300310048
:10223000800478000a0020000b0020006111b80023
:10224000828fd2008381d200090278000c00be0088
:1022500042010700090757004800900009004000ac
:10226000400498000a8575000400320008007800d8
:10227000bafc07000000e00011003a000e00e00088
:102280000f0032006148b800808fd2008180d200f8
:102290000000780000f0a1000c01d0008001d00007
:1022a000030641004220a80081864e004200a9009a
:1022b0004220ae004200a8000c86d300bdff3700cc
:1022c0000080200018006000020032000800780042
:1022d000a2fc070000c020001800600002003200cd
:1022e00048009000600498007fb197000e075100ed
:1022f0000fb99700050009000287d8008001780017
:10230000010037008001eb00030078004f077800e0
:102310004f06be004f05be004f04be006f00b10067
:10232000000006008023210062003700881f78002b
:10233000c81121001804e00003003a00f9ff07006b
:1023400020c0b300004c78004f0478000000060065
:10235000889fbe0000047800080078007ffc07001a
:1023600080047800000420001800600002003200a1
:10237000280090005c0007000000eb00200498009b
:10238000384090000004e000050035000000fb002c
:10239000eff907000000e000010032008084eb004c
:1023a000181090000000e00008003200f1f907006a
:1023b0000000e000010032008084eb001810900063
:1023c000490007000000eb001014980000082000ee
:1023d00018006000150032000001eb006000b8003a
:1023e0000202d000a308210003024200940f14004f
:1023f00005003a0000004000818048000080410054
:102400000008eb000600370061004000e080480053
:102410000201e800e80f5000e08f5800f0ff3a009a
:1024200008007800300007000e003700000c78002c
:1024300000c0eb003044980060022000080040001b
:10244000200498004004980050049800400c980024
:1024500060049800500c98007004980076004400c6
:10246000000c9800090078004f04be000000060030
:10247000881f78000004eb006140b800e2ff2f00e5
:10248000f3ff2f001b01070082092100800041009b
:10249000110078000000e00001003200acff0700ee
:1024a0000804e800e80f5400f3ff3a004f047800f6
:1024b00000000600010020000100e00009003200d9
:1024c000010080000100e000060032008100e90008
:1024d000010088008100d00002008000828040005e
:1024e00080087800000006000000e0002f003200a5
:1024f000c0017800e38f51002c0036000308a300d0
:102500002a003a00d18880000100e0000200320079
:10251000810f50000400310011009800d08888001d
:102520001600370082007800110190000200e000e0
:1025300002003200800f5100faff390011027800ca
:1025400084824000850f500018003900808f5200af
:1025500003003a00830842000100780007003700ba
:102560000200e0000300320083014000830f5100ad
:102570000e00390012009800900098009000900022
:102580000100e0000900320010014000828f50007d
:1025900006003a00821121000009eb0010017800ca
:1025a0001108410091009000110098000000060001
:1025b000889fbe0000047800c18880000100e00010
:1025c00002003200010078000d003700d188800041
:1025d000a011210004003700910f5400250036009f
:1025e0000180e800910090000100e000faff3a004d
:1025f00010003700920f54001e0036000280e800e1
:10260000100178000200e000faff3a0011017800a2
:10261000d1888000a011210004003700910f5400e0
:10262000140036000180e80091009000828f500075
:10263000faff3a00f9888000888f540001003100c9
:102640008804780009007800360007000000e000e8
:1026500004003a00888f5400050032008904d1003c
:10266000f5ff3700091878009fff0700d2ff3700f9
:102670000000eb004f04be0000000600881f780039
:10268000630440000800a1008000eb00800f5400ac
:1026900021003600e30f540001003e0048002000f6
:1026a00008007800c2ff07008000eb000000e00097
:1026b0001900320090007800910178006481510087
:1026c000880f5100030031001101900002087800ca
:1026d000070037000881400002087800910190004f
:1026e000130198001001780011091400880878007f
:1026f000100178000000eb000200e000040032004e
:10270000920190000300e000010032000280e80026
:10271000c08888008180e800010078004f047800bc
:1027200000000600800078000000eb000100e000df
:10273000050034000100780017f90700e10f4000a0
:1027400001003a000000eb000000060000c0da00c3
:102750000000060000c0da00000006003400f800a7
:102760003200f8000203be0082027000850272008f
:1027700002f0a6008301e800a301880000f0a60093
:102780008100e800910188001500b2000c003200c1
:10279000104978000402e90015003200610141008f
:1027a000020039003420ec000200280061004000e3
:1027b000f7ff39003220ec0000002800f4ff37005a
:1027c000100978000482e90009003200620141002a
:1027d000020039003420ec000200280062004000b2
:1027e000f7ff39003220ec0000002800f4ff37002a
:1027f0003200f9003400f9000601be0000000600b6
:102800000300e000070032009501800001d0fe00c7
:102810001042780005d0fe000402fb00820f520037
:10282000110032008301e9009501800001d0fe0013
:102830001042780005d0fe000404e00008003200d9
:10284000000278001000b00000026a004260af0091
:1028500000f0a0000482d2000180b000e8ff370041
:10286000000020000100200000000600839f680097
:102870000100e00002003d0060001000e080180050
:102880000300e00002003d0060011100e08119003a
:10289000050007004f00e00002003b006000100050
:1028a000e0801800000006006022b8000602200048
:1028b0000000d0008180d2000482d2008582d20044
:1028c0000000a0000202520083825a00030031007f
:1028d0000202420083824a000000a1000603e900d0
:1028e000f3ff3a0000000600efff07000400be00ff
:1028f00000000600020ab900001bb9000200b8007f
:10290000810042008100430000000600889fbe0055
:102910008a9fbe0030044200b0844a0030054b005c
:1029200090854b006000b1000898be000a90be0080
:102930000440e10005c8e10006d0e10007d8e1004d
:1029400002003100680040001008e8004f05be009a
:102950004f04be0000000600889fbe008a9fbe0094
:102960003004be002005be000418540005985c0029
:1029700006185d0007985d00110020000440e1008a
:1029800005c8e10006d0e10007d8e10001003900e8
:102990008000eb00108810004f05be004f04be0001
:1029a000000006001200fa00889fbe008a9fbe0049
:1029b0008c9fbe00e0b79f00f1b79f0082bf9f00d1
:1029c00093bf9f000605be000404be000000eb009c
:1029d000d0b79f00c0b79f00b0b79f00a0b79f00bf
:1029e00090b79f00000678005fb19700cfb09700c6
:1029f000820141003fb097000200e00004003d006a
:102a0000370007007e805700c0ff07000300370033
:102a1000330007007e805700cfff0700dfb6970026
:102a20000d00e0000c0035006fb29700ffb2970078
:102a30000fbb97009fbb97001000200001002000f3
:102a40006011b800000272008182720002037300fc
:102a5000838373001b0007000c06e80001042000bc
:102a6000810f5600e0ff3a000d00e00004003d0039
:102a70000802be000a03be007e805700a3ff0700c5
:102a80005fa897000000e00005003a001fb2970021
:102a9000afb297003fb39700cfb39700090007008c
:102aa0006fb09700ffb097000fb997009fb99700dc
:102ab0004f06be004f05be004f04be000080fa0066
:102ac000000006000100070000000600a4b79f00f8
:102ad000b5b79f00c6b79f00d7b79f00000006009c
:102ae0004f09de0082817100b3b79f004f01de0005
:102af0008180400082807000a1b79f008fb0970056
:102b00004f09de00000040000200700090b79f00f7
:102b10007fa897004f01de00818040008280700016
:102b200081b79f000d0007004f3ade000000400013
:102b300004007000f0af9f0008000700040242008c
:102b400085824a0006034b0087834b00dfff0700a6
:102b50000802be000a03be00000006002fb2970064
:102b6000bfb297004fb39700dfb397000000060095
:102b7000881f780018002000881f780089ff070050
:102b80008f87e9004f04780000000600801feb00eb
:102b900084ff07008f87e90000000600889fbe00c1
:102ba0008a9fbe00e00f5000e08f5800e00f5900f0
:102bb000e08f59000c003d006044b8006055b8003b
:102bc0000000540081805c0002015d0083815d0093
:102bd000180020001500070008003d00180007003d
:102be0000004eb00050037000004eb000f000700b5
:102bf00002003d001200070018002000dcff070063
:102c00000800e000060032006022b8006033b8001f
:102c10000000520081805a0002015b0083815b004a
:102c20004f05be004f04be0000000600e00f52003a
:102c3000e08f5a00e00f5b00e08f5b0000000600b1
:102c40006044b8006055b8000402540085825c00fe
:102c500006035d0087835d0000000600889fbe00bc
:102c60008a9fbe008c1f7800e00f5000e08f580054
:102c7000e00f5900e08f59000d003d006044b8009e
:102c80006055b8000000540081805c0002015d00c6
:102c900083815d001c0020000820e10009a8e100fc
:102ca0000ab0e1000bb8e1000d003d00080037005c
:102cb0000006eb00e00f5200e08f5a00e00f5b00cf
:102cc000e08f5b0006003d006044b8006055b8002e
:102cd0000402540085825c0006035d0087835d006a
:102ce000aaff07000c00e000060032006022b800d6
:102cf0006033b8000000520081805a0002015b007e
:102d000083815b004f0678004f05be004f04be0074
:042d100000000600b9
:020000040000fa
:102d140054720000616e0000736d0000697400005d
:102d24002074000065730000740a0000004800006d
:102d3400656c00006c6f0000205700006f7200008b
:102d44006c64000021200000256400000a000000db
:102d5400526500006365000069760000652000008c
:102d640074650000737400003a2000005479000078
:102d74007065000020610000206d00006573000094
:102d8400736100006765000020740000686500003e
:102d94006e20000070720000657300007320000054
:102da400656e00007465000072200000286d00004c
:102db40061780000203100003620000063680000c4
:102dc40061720000732900003a000000596f00008e
:102dd400752000007479000070650000643a0000fa
:102de400200000000a2000006f6b000000000000bb
:102df40096170000c217000002180000ec1700002c
:102e04005a17000078170000361800000a1700004f
:020000040000fa
:102e14000000fa002388a9002368a9000008200004
:102e2400001388006222ef006422ef0020022000d9
:102e34003013880070062000401388006a22ef00d7
:102e44007422ef007622ef007822ef007a22ef005e
:102e54007c22ef007e22ef008022ef008222ef002e
:102e64008422ef00600f210030808800600f210071
:102e740020808800f00f210010808800f00f2100ce
:102e8400008088000870ef00207721000800070008
:102e940000792100150007002368a80061e2a8005a
:102ea40060a2a8006082a8000080fa00000006006a
:102eb4000200fa00000f78001e0078000000e00015
:102ec40003003a0020772100508088000200370078
:102ed4009e007800518088000080fa0000000600ff
:102ee4000000fa000080fa00000006000200fa0068
:102ef400000f78001e0078000000e00003003a0094
:102f04000079210060808800020037009e0078006c
:102f1400618088000080fa00000006000000fa00ca
:102f24000080fa00000006000200fa000040eb00f6
:102f3400004f7800000000001180800000808000b5
:102f4400808f5000fcff320010808000104f78000a
:102f5400108080000000e80010808800118080004c
:102f640080102100808f500002003a00f00f2100f1
:102f7400108088001e4078000080fa0000000600df
:102f84000200fa00004f7800000000001c00070057
:102f94000004a2000004e000fcff3a00208080004e
:102fa4001e487800208080000000e800208088000f
:102fb40021808000f00f2100808f500002003a0031
:102fc400600f2100208088002388a8000080fa0078
:102fd400000006000000fa001180800000808000dc
:102fe4000080680000f0a7000000ea000000ea008a
:102ff4004f00de00004078000080fa000000060068
:103004000400fa00318080001107980021808000bc
:103014001e009000808f5000060031009e0090003a
:1030240020808000008050000000e900000f78003c
:10303400050037009e009000208080000080500032
:1030440068004000000f78001e00780000f0a70020
:103054000000ea000000ea004f00de0000407800b3
:103064000080fa00000006000000fa0021808000c1
:1030740030808000808f500009003a0021138000c6
:10308400000820000080600000f0a7000000ea00b3
:103094000000ea004f00de00004078000100370025
:1030a4000040eb000080fa00000006000400fa0073
:1030b4000180800011079800108080009e0090001d
:1030c400808f5000060031009e0090001080800028
:1030d4000080500069004000000f780004003700b1
:1030e4009e0090001080800000805000000f780047
:1030f400f00f20009e007800808f50000200360000
:1031040000c0eb00020037001e0078000040780089
:103114000080fa00000006000400fa0031808000fc
:1031240011079800218080001e009000808f5000bd
:10313400060031009e009000208080000080500036
:103144000000e900000f7800050037009e009000a1
:10315400208080000080500068004000000f78004c
:10316400f00f20009e007800808f5000020036008f
:1031740000c0eb00020037001e0078000040780019
:103184000080fa00000006000800fa0020079800fa
:1031940031079800c5ff07000080fb00000f78008e
:1031a4003e0090009e0f500002003100be009000cf
:1031b400010f78000000eb001007980009003700a9
:1031c40059ff0700ae009000804878002e00900060
:1031d4000000e800200798001e0090000000e800ae
:1031e400100798001e0090009e0f5000f4ff390055
:1031f4001e0078000080fa00000006000800fa00b3
:103204002007980031079800c3ff07000080fb00e7
:10321400000f78003e0090009e0f50000200310025
:10322400be009000010f78000000eb00100798002a
:10323400090037002e00900010407800ae00900086
:103244008100e800210798004dff07001e00900050
:103254000000e800100798001e0090009e0f500028
:10326400f4ff39001e0078000080fa000000060018
:103274000400fa000000eb00000f78008bff070049
:1032840020479800a4ff0700304798002e40900084
:103294000080fb000000e00003003200e90f500052
:1032a40003003200040037001e20a0000400370091
:1032b4001e00a000020037001e10a0000000000045
:1032c4003e4090000080fb000000e000030032005c
:1032d400e90f500003003200040037001e30a00044
:1032e400020037001e40a000000000001e0078000d
:1032f4000080fa00000006000400fa00100798009d
:10330400118080001e009000008f400002003700f2
:103314009e007800698f5000801021009e00780084
:10332400808f5000faff3e001e00780010407800a5
:103334000080fa00000006000000fa005bff0700ae
:103344000080fb000000e9004f00de000040780030
:103354000080fa00000006000000fa006eff07007b
:103364000080fb000000e9004f00de000040780010
:103374000080fa00000006000400fa003013800008
:103384008000eb00008fbe001e00be00c001dd0007
:1033940002002000201380008000eb000000710078
:1033a400818071000080fa00000006000000fa002d
:1033b40059ff07000004e000100032003180800053
:1033c40020808000808f500006003600308080000e
:1033d4008000780020808000008050000000e90018
:1033e4000700370030808000800078002080800053
:1033f4000080500068004000010037000000eb002e
:103404000080fa00000006000000fa0027ff070011
:103414000004e00010003200118080000080800071
:10342400808f5000060036001080800080007800f5
:1034340000808000008050000000e9000700370091
:1034440010808000800078000080800000805000a0
:1034540068004000010037000000eb000080fa0023
:10346400000006000000fa0061e2a80060a2a800c3
:103474006082a8000080fa00000006000000fa0044
:1034840061e2a90060a2a9006082a9000080fa009c
:10349400000006000000fa00007c80000080fa00b2
:1034a400000006000200fa00faff0700000f78008f
:1034b4001e007800240007000004e000020032002f
:1034c40000002800710007001e0078002a00070091
:1034d4000004e00002003200000024006b0007003a
:1034e4001e007800320007000004e00002003200f1
:1034f40000202000650007001e0078003a00070045
:103504000004e00002003200000820005f00070011
:103514001e007800420007000004e00002003200b0
:1035240000042000590007001e0078004a0007002c
:103534000004e000020032000001200053000700f4
:103544000080fa00000006000400fa00100798004a
:103554000040eb00004f78001e0090000000e000e7
:1035640002003d0010c0b300004f78001e407800f8
:103574000080fa00000006000400fa00100798001a
:103584000040eb00004f78009e00900000002400f3
:10359400008060000000e0000200320010c0b300b0
:1035a400004f78001e4078000080fa0000000600fa
:1035b4000400fa00100798000040eb00004f780068
:1035c4009e00900000202000008060000000e000c9
:1035d4000200320010c0b300004f78001e40780093
:1035e4000080fa00000006000400fa0010079800aa
:1035f4000040eb00004f78009e009000000820007f
:10360400008060000000e0000200320010c0b3003f
:10361400004f78001e4078000080fa000000060089
:103624000400fa00100798000040eb00004f7800f7
:103634009e00900000042000008060000000e00074
:103644000200320010c0b300004f78001e40780022
:103654000080fa00000006000400fa001007980039
:103664000040eb00004f78001e00900070006000e6
:103674000000e0000200320010c0b300004f7800e8
:103684001e4078000080fa00000006000200fa00e4
:10369400000f78009e80ea00007c800000806000bb
:1036a400007c88000080fa00000006000000fa0098
:1036b400802fef000080fa00000006000400fa00ea
:1036c400881f7800100798000040eb00004f780036
:1036d40007003700e1b784001e80fb001e01900044
:1036e4000000410010407800010001001e4fe80076
:1036f4001e84fb001e0090006df50700800f54002f
:10370400f4ff39004f0478000080fa00000006003e
:103714000200fa000040eb00004f7800060037007a
:103724001e80fb00801f780090692900801f7800ac
:103734009af50700e48757001e4fe8001e40780002
:10374400e94f5000f6ff36000080fa000000060042
:103754000600fa00a06a2900801f78008ff5070090
:103764008f87e9000000000000b884000000010019
:103774000004a2000004e000fbff3a000000eb009c
:10378400000f7800020120008000eb00801021006f
:103794003ef507000000eb00100798001200370008
:1037a400d0b7840000000100821021009e00900028
:1037b4008100410080487800811021001e009000a3
:1037c4000080400010407800ea4f500003003a00a7
:1037d4009e009000010f7800060037001e00900044
:1037e4000000e800100798001e009000ef0f500042
:1037f400ebff3600806e2900801f780067f5070014
:103804008f87e9000000eb002007980009003700cb
:10381400811021002e0090000080400010407800ac
:103824000080fb0020f507002e0090000000e80057
:10383400200798002e0090009e0f5000f4ff3500e2
:103844000080fa00000006000000fa00708080008a
:103854009aff0700aeff0700bdff0700406f290075
:10386400801f78004df507008f87e9000080fa007b
:04387400000006004a
:020000040000fa
:103878000811000010000000800000000e10000079
:1038880002000000820000008a960000bc100000c0
:10389800200000008000000010100000020000005e
:1038a80082000000ffff0000f61000001200000078
:1038b80080000000001000000e00000080000000e2
:1038c80012100000880000008200000001000000c3
:1038d800003810003910380010381000381038003f
:1038e8001028100000000000000000000000000088
:1038f80000000000000000000000000000000000c0
:1039080000020800010160001061100060106000f2
:10391800106010006010500010000000000000004f
:10392800000000000000000000000000000000008f
:103938000000000000000200080202008810890050
:103948001088100088108800108810007810000077
:10395800000000000000000000000000000000005f
:1039680000000000000000000000000012103a00f3
:1039780010621000000000000000000000000000bd
:1039880000000000dc1000001a00000082000000a7
:10399800686a6c00747a4c000000010000020000a4
:1039a8000400080000100000000020002b2d230058
:1039b800300000009a100000220000008200000081
:1039c800303132003334350036373800394142005f
:1039d8004344450046003000313233003435360068
:1039e80037383900616263006465660000000000d2
:1039f8001c11000002000000800000001e110000e1
:103a080002000000820000000400000018110000fd
:103a180004000000800000002011000002000000e7
:083a2800800000000000000016
:020000040000fa
:103a30000000fa00062eef00222eef00008020008a
:103a4000f071880020002000d0728800762eef00f0
:103a5000f001200010708800d0ff2f00f070880067
:103a6000f07f2f00d07188000080eb00b0728800da
:103a70000080eb00907388000c2eef00282eef00e2
:103a8000442eef00602eef007c2eef000a2eef0098
:103a9000262eef00422eef005e2eef007a2eef0072
:103aa000082eef00242eef00402eef005c2eef00da
:103ab000782eef00f001200000708800d00920006f
:103ac000e0708800f00c2000c071880000c0270062
:103ad000a072880000042000807388000000eb00c2
:103ae00051052000b1468800a10a2000b146880097
:103af00000688800a0c3b3002aedb700d16c800035
:103b0000f00f2c0080806000003020000100700069
:103b1000d06c88000080200051052000b14688004c
:103b2000a10a2000b1468800006888000080fa00e1
:103b3000000006000000fa0010002300307c88001e
:103b400060092000407c88008c2fef0010042000ca
:103b5000507c880010102000707c880060092000d4
:103b6000807c880010042000907c88009a2fef0051
:103b7000b82fef00ba2fef00be2fef00002def009f
:103b8000a42fef00a62fef00a82fef00aa2fef0021
:103b9000ae2fef00b02fef00b22fef007200200029
:103ba00080072000a109200053f8200080497800f8
:103bb00081497800824978000001eb006004200010
:103bc0007105200043f82000804978008149780081
:103bd000824978000080fa00000006000000fa0028
:103be000707c8000ee800a00000000000080fb0076
:103bf00000f0a7000000ea000000ea004f00de002d
:103c0000004078000080fa00000006000200fa0080
:103c1000000f780021028000200f2000008060004b
:103c20001e007000200288000080fa0000000600dc
:103c30000000fa00c3e8a800000000000000000037
:103c40000080fa00000006000000fa0078ff07007c
:103c500007000700b7ff07006efc0700f4ff07002e
:103c600000022000e9ff07000080fa0000000600c3
:103c70000000fa00f1448000f08f2f000080600007
:103c80000080a000f04488007142800080ff2f0077
:103c9000008060000000a00070428800c1428000e7
:103ca000f08f2f00008060000080a000c0428800dc
:103cb00061428000f0ff28000080600000c0a0008a
:0c3cc000604288000080fa00000006004e
:020000040000fa
:103ccc00f03fb1000180b10006003500ee030900a1
:103cdc0000000000403fb1000180b100fbff3d003f
:103cec001000b000203fb000020035000080090039
:083cfc000000000000000600ba
:020000040000fa
:103d04000200fa00000f78009e007800818088008d
:103d1400ffff37000000fa00c00b21008007780085
:103d2400400d2100000188000080fa000000060018
:103d34000000fa00c3ff0700c3fe070000242400ac
:0c3d4400f1002000e0ff0700fbff37004b
:020000040000fa
:043d5000ffffff0072
:020000040000fa
:02000004000af0
:04fe0000ffffff0001
:020000040000fa
:02000004000af0
:04fe2000ffffff00e1
:020000040000fa
:02000004000af0
:04fe30007fffff0051
:020000040000fa
:02000004000af0
:04fe3800bfffff0009
:020000040000fa
:02000004000af0
:04fe40006003ff005c
:020000040000fa
:02000004000af0
:04fe4800ffffff00b9
:020000040000fa
:02000004000af0
:04fe5000dfffff00d1
:020000040000fa
:02000004000af0
:04fe58000000ff00a7
:020000040000fa
:02000004000af0
:04fe60000000ff009f
:020000040000fa
:02000004000af0
:04fe68000000ff0097
:020000040000fa
:02000004000af0
:04fe70000000ff008f
:020000040000fa
:02000004000af0
:04fe7800ffffff0089
:020000040000fa
:02000004000af0
:04fe8000fffcff0084
:020000040000fa
:02000004000af0
:04fe8800ffffff0079
:020000040000fa
:02000004000af0
:04feb000ffffff0051
:020000040000fa
:02000004000af0
:04fec000ffffff0041
:020000040000fa
:02000004000af0
:04fed000ffffff0031
:020000040000fa
:02000004000af0
:04fee000ffffff0021
:020000040000fa
:02000004000af0
:04fef000ffffff0011
:020000040000fa
:02000004000af0
:04fff800ffffff0008
:020000040000fa
:020000040100f9
:04300000ffffff00cf
:00000001FF
